:020000040800F2
:1000000010110020C1010008393F0008CB31000861
:10001000353F0008011C0008B54F00080000000033
:10002000000000000000000000000000C5460008BD
:100030003F2B000800000000E9420008D901000839
:10004000DB010008DB010008DB010008DB01000820
:10005000DB010008DB010008DB010008DB01000810
:10006000DB010008DB010008DB010008DB01000800
:10007000DB010008DB010008DB010008DB010008F0
:10008000DB010008DB010008DB010008411C00085F
:10009000051C0008DB010008DB010008DB0100088B
:1000A000DB010008DB010008DB010008DB010008C0
:1000B000DB010008DB010008DB010008DB010008B0
:1000C000DB010008DB010008DB010008DB010008A0
:1000D000DB010008994B0008614C00088D4C0008BA
:1000E000DB010008DB010008DB010008DB01000880
:1000F000DB010008DB010008DB010008DB01000870
:10010000DB010008DB01000899480008DB0100085A
:10011000DB010008DB01000809490008DB010008D9
:10012000DB010008DB010008DB010008DB0100083F
:10013000DB010008DB010008DB0100088D1C000862
:100140005D1C0008DB010008DB010008DB01000882
:10015000DB010008DB010008DB010008CD4C0008D2
:10016000DB010008DB010008DB010008DB010008FF
:10017000DB010008DB010008DB010008DB010008EF
:10018000DB010008DB010008DB010008DB010008DF
:10019000DB010008DB010008DB010008DB010008CF
:1001A0000000000000000000DB010008DFF80CD0B8
:1001B00000F020FB0048004795690008101100205E
:1001C0000648804706480047FEE7FEE7FEE7FEE7F1
:1001D000FEE7FEE7FEE7FEE7FEE7FEE7F147000881
:1001E000AD01000840EA01039B0703D009E008C9FC
:1001F000121F08C0042AFAD203E011F8013B00F8EC
:10020000013B521EF9D27047D2B201E000F8012B37
:10021000491EFBD270470022F6E710B513460A4686
:1002200004461946FFF7F0FF204610BD2DE9FE4FAA
:10023000804681EA0300C00F0C46009021F0004187
:1002400023F00045B8EB0200A94105D24046214603
:1002500090461C460B46024623F00040104347D010
:10026000270DC7F30A00C3F30A510290401A019008
:1002700040286BDAC3F3130040F4801B00989246C9
:1002800020B10023D2EB030A63EB0B0B0198594614
:10029000C0F14002504600F038F906460D4650467F
:1002A0005946019A00F040F910EB08006141002422
:1002B00087EA115284EAE7731A4340D0009A62B386
:1002C000019A012A4FEA075215DC001B61EB02017B
:1002D0004FF0004202EA0752CDE90042001C41F50E
:1002E000801132462B4600F077F903B0BDE8F08F5D
:1002F00040462146F9E7001B61EB0201001C41F575
:10030000801300185B412018A2F5001747EB03018A
:1003100040EAD570B6196D4111E06D084FEA360616
:1003200045EAC0754FEA0752001B61EB0201001C51
:1003300041F5801149084FEA300000195141324619
:100340002B4603B0BDE8F04F00F037B9009801220A
:1003500040000023D0EB020263EBE07300982146DB
:100360004FEAE074B8EB000061EB0401E9E783F0C9
:1003700000435BE781F0004158E72DE9FE4F81EA39
:10038000030404F0004421F0004100944FF0000BFE
:1003900023F0004350EA01045ED052EA03045BD02C
:1003A000C3F30A54C1F30A552C44A4F2F334019464
:1003B000A0FB0254C1F3130141F48011C3F31303F2
:1003C00043F4801301FB024400FB034E840A970AA6
:1003D00044EA815447EA8357A4FB076802958D0AD3
:1003E00005FB07854FEA932C04FB0C542705029D5F
:1003F0004FEA065847EA1637B5EB08056EEB070CCF
:10040000870E920E47EA811742EA8312A7FB020188
:10041000B6EB0B0164EB00042B0D43EA0C335E18C2
:1004200044EB1C50DA465146E7FB0201C5F31304C6
:100430004FEA0B3343EA14534FEA0432019C43EA78
:100440000603A4F10C040294009CCDE900B400F072
:10045000C3F803B0BDE8F08F00200146F9E70EB500
:10046000C10F80EAE0700844CA07002140F233431C
:100470008DE80E000A460B4600F0AEF803B000BD52
:1004800000F0004230F000400AD0C10D01F560716B
:10049000C0F3160042EA0151C208400711437047F9
:1004A00000200146704701F0004330B421F00041C4
:1004B00050EA010206D00A0DA2F56072C1F31301E1
:1004C000002A02DC30BC00207047440F44EAC1041B
:1004D000C100E01830BC00EBC25000F037B830B5B6
:1004E0000B46014600202022012409E021FA02F5F2
:1004F0009D4205D303FA02F5491B04FA02F528448C
:10050000151EA2F10102F1DC30BD202A04DB203AE5
:1005100000FA02F1002070479140C2F1200320FA56
:1005200003F3194390407047202A06DBCB17203A8B
:1005300041FA02F043EAE07306E041FA02F3D040E8
:10054000C2F1200291400843194670470029A8BF14
:100550007047401C490008BF20F00100704710B4EC
:10056000B0FA80FC00FA0CF050EA010404BF10BCA1
:10057000704749B1CCF1200421FA04F411FA0CF1CE
:1005800018BF012121430843A3EB0C01CB1D4FEA07
:1005900000614FEA102042BF002010BC704700EB02
:1005A000C35010440029A4BF10BC7047401C490030
:1005B00008BF20F0010010BC704710B5141E73F185
:1005C000000408DA401C41F1000192185B411A4313
:1005D00001D120F0010010BD2DE9F04D92469B465F
:1005E00011B1B1FA81F202E0B0FA80F22032904605
:1005F000FFF78BFF04460F4640EA0A0041EA0B0171
:1006000053465A46084313D0114653EA010019D005
:10061000C8F14002504600F0FFF805460E4650462D
:1006200059464246FFF771FF084305D0012004E018
:1006300020463946BDE8F08D0020054346EAE076C5
:100640002C4337430A986305E40AA0EB0800002214
:10065000FD0A44EA47540A3002D500200146E9E782
:10066000010510196941DDE9084500196941BDE836
:10067000F04DA2E72DE9F04D81EA030404F0004BB0
:1006800021F0004514464FF0000A23F0004150EAE3
:10069000050220D054EA01021DD0C5F30A570246D4
:1006A000C5F31303C1F31300C1F30A5640F48015D8
:1006B00043F48013A7EB0608101BD64608F2FD385A
:1006C00073EB050002D308F1010801E092185B41C9
:1006D000B8F1000F03DA00200146BDE8F08D0020DC
:1006E0004FF48011064684460EE0171B73EB050796
:1006F00005D3121B63EB050306434CEA010C4908C2
:100700004FEA300092185B4150EA0107EDD152EAFE
:10071000030012D082EA040083EA0501084305D0F1
:10072000101BAB4106D20122002306E000224FF04D
:10073000004302E06FF0010253101AEB06004CEB8D
:10074000085110EB0A0041EB0B01BDE8F04DFFF73B
:1007500034BF2DE9F04D00231A461B1A8A4103DBF2
:1007600000200146BDE8F08DC1F30A52C1F3130128
:1007700041F480154FF0000BD10702D100186D41F4
:10078000521E0027044640F2FF11384601EB620A70
:100790003E468046024600204FF4801100F03CF8AF
:1007A000C2197141BB1846EB0100B4EB030C75EBA9
:1007B000000C04D3E41A65EB000517460E46241915
:1007C00008F101006D4180463428E3DDF91946EB5C
:1007D0000600091BA84103D24FF0FF32134601E087
:1007E000002213461BEB070046EB0A51BDE8F04D13
:1007F000FFF7E3BE064C074D06E0E06840F001035A
:1008000094E8070098471034AC42F6D3FFF7D2FCC7
:10081000D06A0008F06A0008202A04DB203A21FA96
:1008200002F00021704721FA02F3D040C2F1200209
:10083000914008431946704770B58C1810F8015B59
:1008400015F0070301D110F8013B2A1106D110F869
:10085000012B03E010F8016B01F8016B5B1EF9D16D
:100860002B0705D40023521E0DD401F8013BFAE7F3
:1008700010F8013BCB1A921C03E013F8015B01F85E
:10088000015B521EF9D5A142D8D3002070BD0000F3
:1008900000B52DED108B89B0F0EE40DAB0EE60EAD5
:1008A000B0EE41BAF0EE61EAF0EE42BAB0EE62CAE2
:1008B000B1EE4B0A10EE100AFFF7E2FDB1EE4E0A60
:1008C000CDE9040110EE100AFFF7DAFDCDE90201CF
:1008D0009DED041B9DED020B05F026F98DED060B39
:1008E0009DED060B51EC100BFFF7DDFD0CEE900AB1
:1008F000B1EE4B0A10EE100AFFF7C2FDCDE902017E
:100900001DEE900AFFF7BCFDCDE900019DED021B35
:100910009DED000B05F008F98DED040B9DED040B2A
:1009200051EC100B81F00041CDE906019DED060B65
:1009300051EC100BFFF7B7FD0DEE100AB0EE6C0A8C
:1009400005F012FBB0EE408AB0EE6C0A05F0B4FB85
:10095000F0EE408AB0EE4D0A05F006FBF0EE409A4C
:10096000B0EE4D0A05F0A8FBB0EE409A2EEEA90AB3
:100970006BEEA80A00EE890A6CEE080A00EE890AFE
:100980008DED080A2BEE880A0CEE680AF0EE40FAAC
:10099000DDED080AB1EE6F0A05F0BEF9B0EE40FADF
:1009A000F6EE000A6CEEA00AB0EE600A05F0DCFA82
:1009B000B0EE408AF6EE000A6CEEA00AB0EE600AD5
:1009C00005F07AFBF0EE408AF6EE000A6DEE200AA2
:1009D000B0EE600A05F0C8FAF0EE409AF6EE000AB2
:1009E0006DEE200AB0EE600A05F066FBB0EE409AAC
:1009F000F6EE000A6FEE200AB0EE600A05F0B4FAD7
:100A0000B0EE40AAF6EE000A6FEE200AB0EE600AE1
:100A100005F052FBF0EE40AA28EE290A20EE0A0A61
:100A200068EE890A00EEAA0A444880ED000A28EE22
:100A3000A90A20EE0A0A68EE090A00EEEA0A40480E
:100A400080ED000A28EE090A20EE0A0A68EEA90ADB
:100A500000EEAA0A3B4880ED000A28EE290A20EEA3
:100A60002A0A68EE890A00EECA0A374880ED000AB1
:100A7000324890ED000A20EE000A344880ED000A6A
:100A80002E4890ED000A2E48D0ED000A20EE200AF4
:100A90002F4880ED000A294890ED000A2948D0ED42
:100AA000000A20EE200A2B4880ED000A234890ED32
:100AB000000A2548D0ED000A20EE200A264880EDE5
:100AC000000A1F4890ED000A20EE000A234880ED3E
:100AD000000A1B4890ED000A1A48D0ED000A20EEEB
:100AE000200A1F4880ED000A154890ED000A1648BC
:100AF000D0ED000A20EE200A1A4880ED000A1148C5
:100B000090ED000A20EE000A174880ED000A0D481B
:100B100090ED000A0C48D0ED000A20EE200A1348A0
:100B200080ED000A084890ED000A20EE000A104807
:100B300080ED000A09B0BDEC108B00BDF001002073
:100B4000F4010020F8010020FC010020C801002071
:100B5000CC010020D0010020D4010020D8010020C9
:100B6000DC010020E0010020E4010020E801002079
:100B7000EC01002070B52DED108B8CB0B0EE40AACA
:100B8000B0EE60DAF0EE41AAB0EE61BAF0EE42BA31
:100B9000B0EE62CAF0EE43CAF0EE639AB0EE448A59
:100BA000F0EE648A04460D461646F0EE45FAF0EE85
:100BB00065DA9FEDFE0AB0EE40EA9FEDFC0AF0EE2A
:100BC00040EA9FEDFA0AB0EE40FA9FEDF90A2BEEEB
:100BD000800AF0EE40BA9FEDF60A2CEE000AB0EE65
:100BE00040CA9FEDF30A2CEE800AF0EE40CAF148AD
:100BF0000078142812DAF0EE682AB0EE482AF0EEF7
:100C0000691AB0EE4B1AF0EE6A0AB0EE4D0AFFF721
:100C10003FFEE8480078401CE6490870F5EEC09AAF
:100C2000F1EE10FA09D1B5EEC08AF1EE10FA04D156
:100C3000F5EEC08AF1EE10FA7ED069EEA90A48EE10
:100C4000080A48EEA80AB0EE600A05F06DFEB0EEA4
:100C5000409A29EE890AF0EE409A28EE090AB0EE91
:100C6000408A28EE890AF0EE408AD348D0ED000A87
:100C7000B6EE000A30EE600AD048D0ED000A30EE41
:100C8000600A20EE290ACE48D0ED000ACD4890ED4A
:100C9000001A70EEC10A08EE200ACB48D0ED000A17
:100CA000CA4890ED001A70EE810A08EEA00AF0EE34
:100CB000000A20EE200A8DED0B0AC14890ED000AD3
:100CC000C048D0ED000A30EE200A20EE290AC048C4
:100CD000D0ED000AB6EE001A71EE600AB74890ED4A
:100CE000001A70EEC10A08EE200ABA4890ED001A08
:100CF000B948D0ED000A71EE600A08EEA00AF0EEE5
:100D0000000A20EE200A8DED0A0AB0EE000A29EE54
:100D1000800AAD48D0ED000AAC4890ED001A70EEA4
:100D2000C10A20EE200AF0EE000A68EE200AA94867
:100D300090ED001AA84800E0B4E0D0ED001A31EEC2
:100D4000211A00EE810AF0EE000A68EEA00AA0481F
:100D500090ED001AF6EE001A31EEC11A9648D0ED69
:100D6000001A31EE611A00EE810A8DED090A9DED3F
:100D70000B0A60EE000A9DED0A0A40EE000A10EE32
:100D8000901A0846FFF77CFBCDE900019DED000BB2
:100D900005F05AFA8DED020B9DED020B51EC100B94
:100DA000FFF781FB08909DED090A8DED070A824847
:100DB00090ED000AF6EE000A30EEC00A7F48D0ED52
:100DC000000A70EE600A9DED080A60EE800A7E4817
:100DD00090ED000A7D4890ED001A30EE411A9DED2D
:100DE000070A40EE010ACDED060A754890ED000AAB
:100DF0007448D0ED000A70EE600A9DED080A60EEBE
:100E0000800A754890ED000A724890ED001A30EEA5
:100E1000011A9DED070A40EE010ACDED050A6B4867
:100E2000D0ED000A684890ED000A70EE800A9DED52
:100E3000080A60EE800A664890ED000AB6EE001AD5
:100E400031EE400A5C4890ED001A30EE411A9DEDFB
:100E5000070A40EE010ACDED040A9DED040A68EE92
:100E6000000A9DED050A48EEC00A30EE8E0AB0EE8B
:100E700040EA9DED060A68EE800A9DED040A49EEFF
:100E8000C00A30EEAE0AF0EE40EA9DED050A69EECA
:100E9000800A9DED060A48EE400A30EE8F0AB0EE59
:100EA00040FA00BFB5EEC0DAF1EE10FA09D1F5EE66
:100EB000C0AAF1EE10FA04D1B5EEC0BAF1EE10FA04
:100EC00052D06DEE0D0A4AEEAA0A4BEE0B0AB0EEB6
:100ED000600A05F029FDB0EE409A2DEE090AB0EE49
:100EE00040DA2AEE890AF0EE40AA2BEE090AB0EEAB
:100EF00040BA354890ED000A3448D0ED000A30EE93
:100F0000600AB0EE402A344890ED000A3148D0ED36
:100F1000000A30EE200AF0EE402A304890ED000A38
:100F2000F6EE000A30EE600A2448D0ED000A30EEFA
:100F3000200AB0EE403A2AEE830A0BEE620A30EE47
:100F40000E0AB0EE40EA2BEE020A0DEE430A30EE36
:100F50002E0AF0EE40EA2DEE220A0AEEC20A30EE28
:100F60000F0AB0EE40FA00BFB5EEC0EAF1EE10FA9B
:100F700076D0F5EEC0EAF1EE10FA71D0B5EEC0FA17
:100F8000F1EE10FA6CD0F5EEC0DAF1EE10FA48DDB1
:100F9000134890ED000A6DEE8E0A00EE8A0A80ED8D
:100FA000000A90ED010A6DEEAE0A1BE000000000A1
:100FB00034FA8E3C24020020E4010020EC010020E1
:100FC000DC010020D4010020E0010020D00100203D
:100FD000D8010020E8010020CC010020C801002039
:100FE000F80C002000EE8A0A80ED010A90ED020A5A
:100FF0006DEE8F0A00EE8A0A80ED020A90ED000A7B
:1010000030EE2B0AF0EE40BA90ED010A30EE0C0AF9
:10101000B0EE40CA90ED020A30EE2C0AF0EE40CA63
:101020000CE01FED1E0AE44880ED000A1FED210AC6
:1010300080ED010A1FED230A80ED020AB0EE6B0A73
:101040000FEE8E0AF0EE40BAB0EE4C0A0FEEAE0A8A
:10105000B0EE40CAB0EE6C0A0FEE8F0AF0EE40CA56
:10106000D64890ED000AB1EE400A20EE2B0AD44893
:10107000D0ED000A00EECC0AD248D0ED000A00EE16
:10108000EC0AF6EE000A20EE200ACF4880ED000AB6
:10109000CE4890ED000A20EE2B0AC948D0ED000A98
:1010A00000EEAC0AC748D0ED000A00EECC0AF6EE1E
:1010B000000A20EE200AC64880ED000AC34890EDE1
:1010C000000A20EE0C0ABD48D0ED000A00EEEC0A42
:1010D000BC48D0ED000A00EEAB0AF6EE000A20EEA6
:1010E000200ABC4880ED000AB84890ED000A20EEC6
:1010F0002C0AB248D0ED000A00EE8C0AB048D0EDC0
:10110000000A00EEEB0AF6EE000A20EE200AB248D2
:1011100080ED000AAD4890ED000AAB48D0ED000A22
:101120000AEE200AA94880ED000AA44890ED000AC2
:10113000A748D0ED000A0AEE200AA04880ED000A78
:101140009F4890ED000AA348D0ED000A0AEE200A5D
:101150009B4880ED000A9B4890ED000A9E48D0ED28
:10116000000A0AEE200A974880ED000A9748D0ED61
:10117000000A60EEA00A914890ED001AD0ED001A26
:1011800041EE210A8E4890ED001AD0ED001A41EE92
:10119000210A8C4890ED001AD0ED001A41EE210A88
:1011A000B0EE600A05F0C0FBB0EE409A874890EDC3
:1011B000000A20EE090A80ED000A804890ED000A3E
:1011C00020EE090A80ED000A7D4890ED000A20EE2D
:1011D000090A80ED000A7B4890ED000A20EE090A1A
:1011E00080ED000A794890ED000A20EE000A7B4865
:1011F00080ED000A754890ED000A7048D0ED000AB5
:1012000020EE200A764880ED000A704890ED000A32
:101210006B48D0ED000A20EE200A724880ED000AEB
:101220006A4890ED000A6748D0ED000A20EE200AD7
:101230006D4880ED000A614890ED000A20EE000A3A
:101240006A4880ED000A5D4890ED000A5C48D0EDE8
:10125000000A20EE200A664880ED000A574890ED0B
:10126000000A5848D0ED000A20EE200A614880EDBF
:10127000000A534890ED000A20EE000A5E4880ED17
:10128000000A4F4890ED000A4E48D0ED000A20EECB
:10129000200A5A4880ED000A4A4890ED000A20EEE4
:1012A000000A574880ED000A454890ED001A45486D
:1012B000D0ED001A21EE211A4448D0ED001A3F4823
:1012C00090ED002A01EE821AF0EE001A21EE211AAA
:1012D000B0EE410A414890ED001A4448D0ED001AA2
:1012E00031EE611A4448D0ED001A31EE611A4448DB
:1012F000D0ED001A31EE211AF0EE410A04F00CFD97
:10130000DFED400A20EE200A85ED000A2B48D0EDE3
:10131000000A2C4890ED001A60EE810A2B4890EDEF
:10132000001A2748D0ED001A41EE610AB0EE001A0B
:1013300060EE810AB0EE600A04F0F2F9B1EE400A04
:10134000DFED300A20EE200A84ED000A1B4890ED04
:10135000001A1B48D0ED001A21EE211A1B48D0EDCF
:10136000001A184890ED002A01EE821AF0EE001AD9
:1013700021EE211AB0EE410A184890ED001A1B48E0
:10138000D0ED001A31EE211A1B48D0ED001A31EED3
:10139000611A1B48D0ED001A31EE611AF0EE410AD5
:1013A00004F0BAFCDFED170A20EE200A86ED000AF1
:1013B0000CB0BDEC108B70BDF80C0020F4010020C7
:1013C000F8010020FC01002000020020F0010020B4
:1013D00004020020080200200C020020C8010020A6
:1013E000CC010020D0010020D4010020D801002031
:1013F000DC010020E0010020E4010020E8010020E1
:10140000EC0100203333654210B500244FF4A06096
:1014100002F0D0FD03F052FA03F01EFA02F065F973
:1014200002F07EF903F07AF84FF4E13003F0E4FEC5
:101430004FF4E13004F068F84FF4E13004F0DAF8EA
:1014400000F0EEFE00F074FF02F09AFE01F0BCFC2A
:10145000642001F075FB03F065F8642001F070FB77
:1014600002E0642001F06CFB02F04CFC0028F8D193
:10147000C82001F065FB02E0C82001F061FB02F02A
:1014800035F80028F8D1002405E001F0DDF9052049
:1014900001F056FB641C642CF7DB03F049FA10BD25
:1014A00010B503F011F902F0D3FE10BD01461C483F
:1014B000814201D2002070471A48814201D208209F
:1014C000F9E71948814201D21020F4E71748814218
:1014D00001D21820EFE71648814201D22020EAE726
:1014E0001448814201D22820E5E71348814201D205
:1014F0003020E0E71148814201D23820DBE7104874
:10150000814201D24020D6E70E48814201D24820D4
:10151000D1E70D48814201D25020CCE75820CAE7DC
:10152000004000080080000800C00008000001081A
:101530000000020800000408000006080000080877
:1015400000000A0800000C0800000E082DE9F04118
:1015500007460D461646002405E0384600F007F819
:1015600028557F1C641CB442F7D3BDE8F0810146C6
:10157000087870472DE9FC5F04460D4690464FF011
:1015800008090120019000264FF0000A00274FF0C3
:10159000000B00200090B4F1006F01D2BDE8FC9F69
:1015A00001F02AFD002001F07DFC264604EB080A2C
:1015B0003046FFF77BFF83465046FFF777FF0090EA
:1015C0001648864211D25F460BE00221384601F0F0
:1015D0007BFC8146B9F1080F02D00020019003E0A6
:1015E000083700988742F0D900BFB9F1080F0ED133
:1015F0000AE02978204601F0D9FC082802D0002012
:10160000019003E0641C6D1C5445F2D300BF01201F
:1016100001F048FC01F0C0FC0198BFE70000FF1F8B
:101620002DE9F0412DED048B04460E4600250027E0
:1016300004E0E05D2844C5B2781CC7B2701EB84211
:10164000F7DCA01910F8010CA84203D0BDEC048B04
:10165000BDE8F0812078AA2802D16078AF2800D0B8
:10166000F4E7A078012827D12079012802D101F0E0
:10167000AFFD21E02079022802D101F0B3FD1BE08B
:101680002079032804D101F0A3FD01F0ABFD13E0A4
:101690002079042802D101F0AFFD0DE02079052862
:1016A00003D10120FE49087006E02079212802DBE1
:1016B0002079262800DD00BFA07802280DD12079EE
:1016C000012805D1F7490870F7490870F7490870F3
:1016D0002079A12801D102F0BBFDA07810287CD18F
:1016E0002179090209B2627941EA0200FEF7B7FEE8
:1016F00041EC190B9FEDEE0B53EC102BFEF73DFE6A
:1017000041EC180BFEF7CFFEEB490860A179090206
:1017100009B2E27941EA0200FEF7A1FE41EC190BA1
:101720009FEDE30B53EC102BFEF727FE41EC180B5B
:10173000FEF7B9FEE0494860217A090209B2627AEF
:1017400041EA0200FEF78BFE41EC190B9FEDD80B2E
:1017500053EC102BFEF711FE41EC180BFEF7A3FE25
:10176000D5498860A17A090209B2E27A41EA020009
:10177000FEF775FE41EC190B9FEDCD0B53EC102BD2
:10178000FEF7FBFD41EC180BFEF78DFECA49C86160
:10179000217B090209B2627B41EA0200FEF75FFE8B
:1017A00041EC190B9FEDC20B53EC102BFEF7E5FD3E
:1017B00041EC180BFEF777FEBF490862A17B0902D6
:1017C00009B2E27B41EA0200FEF749FE41EC190B47
:1017D0009FEDB70B53EC102B00E054E0FEF7CDFD6E
:1017E00041EC180BFEF75FFEB3494862217C090209
:1017F00009B2627C41EA0200FEF731FE41EC190BAE
:101800009FEDAB0B53EC102BFEF7B7FD41EC180B23
:10181000FEF749FEA8498863A17C090209B2E27C6F
:1018200041EA0200FEF71BFE41EC190B9FEDA00BF5
:1018300053EC102BFEF7A1FD41EC180BFEF733FE25
:101840009D49C863217D090209B2627D41EA020017
:10185000FEF705FE41EC190B9FED950B53EC102B99
:10186000FEF78BFD41EC180BFEF71DFE9249086454
:101870009248007838B9012090490870A0789049C2
:10188000087090480570A07811287CD12179090250
:1018900009B2627941EA0200FEF7E1FD41EC190B61
:1018A0009FED830B53EC102BFEF767FD41EC180BFB
:1018B000FEF7F9FD80494865A179090209B2E2798C
:1018C00041EA0200FEF7CBFD41EC190B9FED780BCE
:1018D00053EC102BFEF751FD41EC180BFEF7E3FD26
:1018E00075498865217A090209B2627A41EA0200E3
:1018F000FEF7B5FD41EC190B9FED6D0B53EC102B72
:10190000FEF73BFD41EC180BFEF7CDFD6A49C865BB
:10191000A17A090209B2E27A41EA0200FEF79FFDCC
:1019200041EC190B9FED620B53EC102BFEF725FDDC
:1019300041EC180BFEF7B7FD5F490867217B0902F0
:1019400009B2627B41EA0200FEF789FD41EC190B06
:101950009FED570B53EC102BFEF70FFD41EC180BCE
:10196000FEF7A1FD54494867A17B090209B2E27B59
:1019700041EA0200FEF773FD41EC190B9FED4C0BA1
:1019800053EC102B00E057E0FEF7F7FC41EC180B8E
:10199000FEF789FD48498867217C090209B2627C0B
:1019A00041EA0200FEF75BFD41EC190B9FED400B95
:1019B00053EC102BFEF7E1FC41EC180BFEF773FD26
:1019C0003D49C1F88C00A17C090209B2E27C41EAE0
:1019D0000200FEF744FD41EC190B9FED350B53EC73
:1019E000102BFEF7CAFC41EC180BFEF75CFD3249E8
:1019F000C1F89000217D090209B2627D41EA02002E
:101A0000FEF72DFD41EC190B9FED290B53EC102B2C
:101A1000FEF7B3FC41EC180BFEF745FD2649C1F873
:101A200094002648007838B9012024490870A0782D
:101A30002349087023480570A07812287BD12179AA
:101A4000090209B2627941EA0200FEF708FD41ECA1
:101A5000190B9FED170B53EC102BFEF78EFC41EC8E
:101A6000180BFEF720FD1449C1F8A800A17909025E
:101A700009B2E27941EA0200FEF7F1FC41EC190BF0
:101A80009FED0B0B53EC102BFEF777FC41EC180B82
:101A9000FEF709FD0849C1F8AC00217A090213E0FC
:101AA000B200002043000020440000204500002038
:101AB000FCA9F1D24D62503FB3000020420000204B
:101AC000400000204100002009B2627A41EA020091
:101AD000FEF7C5FC41EC190B1FED0B0B53EC102B63
:101AE000FEF74BFC41EC180BFEF7DDFC4049C1F85A
:101AF000B000A17A090209B2E27A41EA0200FEF7D7
:101B0000AEFC41EC190B1FED160B53EC102BFEF73E
:101B100034FC41EC180BFEF7C6FC3549C1F8C40093
:101B2000217B090209B2627B41EA0200FEF797FCC1
:101B300041EC190B00E02EE01FED230B53EC102BB2
:101B4000FEF71BFC41EC180BFEF7ADFC2849C1F871
:101B5000C800A17B090209B2E27B41EA0200FEF75C
:101B60007EFC41EC190B1FED2E0B53EC102BFEF7F6
:101B700004FC41EC180BFEF796FC1D49C1F8CC00A3
:101B80001C48007838B901201A490870A0781A4911
:101B900008701A480570A07813280AD115480078F3
:101BA00038B9012013490870A07813490870134808
:101BB0000570A07814280AD10E48007838B90120A1
:101BC0000C490870A0780C4908700C480570A07882
:101BD00015280AD10748007838B90120054908704E
:101BE000A078054908700548057000BF2EE5000083
:101BF000B3000020420000204000002041000020EF
:101C000000BFFEE700B585B002210B4800F05CF98B
:101C100078B10421084800F063F80849064800F04C
:101C200043F86A460021044800F071FA684600F063
:101C300009FC05B000BD000000640040080000324F
:101C400010B50121044800F03FF918B10121024804
:101C500000F046F810BD00000064004000B585B0FB
:101C60000221094800F030F958B10221064800F07D
:101C700037F86A460021044800F049FA684600F047
:101C8000E1FB05B000BD00000068004010B5012177
:101C9000044800F019F918B10121024800F020F8B9
:101CA00010BD00000068004000220C4B994202D198
:101CB0000023836111E0C1F3130201F000730BB143
:101CC000C2600AE001F080630BB1026105E001F03F
:101CD00000630BB1826000E0426070477000F0303A
:101CE000B1F5007F3AD00FDC202928D006DC01298D
:101CF0001CD004291DD0082940D11DE0402921D045
:101D0000B1F5807F3AD126E0B1F5004F31D006DC45
:101D1000B1F5806F25D0B1F5006F2FD124E0B1F57A
:101D2000803F12D0B1F5003F28D111E0154A826002
:101D300025E00822C26022E01022C2601FE00822D3
:101D400002611CE01022026119E00822426016E0E4
:101D50001022426013E00422426010E0042242603C
:101D60000DE0042242600AE0002282610422426007
:101D700005E0002282610422426000E000BF00BF53
:101D8000704700000101010010B504460B48844271
:101D900009D10121480602F0C9FA00214FF0007074
:101DA00002F0C4FA08E00121880602F0BFFA00211F
:101DB0004FF0806002F0BAFA10BD000000640040ED
:101DC00010B50021837A012202FA03F13D4A12681C
:101DD00042F001023B4B1A603A4A1C3212688A43B5
:101DE000384B1C331A60027BCAB9364A0C3212686F
:101DF0008A43344B0C331A604288C38842EA034357
:101E0000304A4032847A42F834300288838842EA89
:101E100003432C4A4032847A02EBC4025360027BB3
:101E2000012A19D1274A0C3212680A43254B0C3378
:101E30001A604288038842EA0343224A4032847A85
:101E400042F83430C288838842EA03431D4A403254
:101E5000847A02EBC4025360C27A3AB9194A121D5D
:101E600012688A43174B1B1D1A6006E0154A121DA3
:101E700012680A43134B1B1D1A60028932B9114ABA
:101E8000143212688A430F4B14331A600289012AF4
:101E900006D10C4A143212680A430A4B14331A60F2
:101EA000427B012A06D1074A1C3212680A43054BBD
:101EB0001C331A60034A126822F00102014B1A60B7
:101EC00010BD00000066004070B504460D460026B7
:101ED00060692840002871D0B5F5807F5CD010DCA7
:101EE000082D35D006DC012D20D0022D24D0042D64
:101EF00072D127E0102D31D0202D35D0402D6BD15F
:101F000038E0B5F5004F60D009DCB5F5007F49D069
:101F1000B5F5806F4CD0B5F5006F5DD14FE0B5F5EC
:101F2000803F2DD0B5F5003F56D12FE0A0682D4958
:101F300000F0BCFC064651E0E068032100F0B6FC6E
:101F400006464BE0E068082100F0B0FC064645E09C
:101F5000E068102100F0AAFC06463FE0206903215A
:101F600000F0A4FC064639E02069082100F09EFC40
:101F7000064633E02069102100F098FC06462DE06B
:101F80006068082100F092FC064627E06068102196
:101F900000F08CFC064621E0A069012100F086FCDF
:101FA00006461BE0A069022100F080FC064615E011
:101FB000A069042100F07AFC06460FE00FE0A0695A
:101FC000702100F073FC064608E06068042100F010
:101FD0006DFC064602E0FFE7002600BF00E0002699
:101FE000304670BD010101001AB143690B434361E2
:101FF00002E043698B434361704730B502460020DD
:102000000023146824F002041460146844F00104EE
:10201000146000E05B1C546804F001041CB94FF626
:10202000FF74A342F6D1546804F001040CB90020F7
:102030006CE08C79012C04D1146844F080041460A5
:1020400003E0146824F080041460CC79012C04D1DE
:10205000146844F04004146003E0146824F0400461
:1020600014600C7A012C04D1146844F0200414602C
:1020700003E0146824F0200414604C7A012C04D18D
:10208000146844F01004146003E0146824F0100491
:1020900014608C7A012C04D1146844F00804146094
:1020A00003E0146824F008041460CC7A012C04D1F5
:1020B000146844F00404146003E0146824F0040479
:1020C00014608C78A407CD7844EA05640D7944EA5D
:1020D00005444D7944EA05540D886D1E2C43D461A6
:1020E000146824F001041460002300E05B1C5468B1
:1020F00004F001041CB14FF6FF74A342F6D15468FA
:1021000004F001040CB1002000E0012030BD10B546
:1021100000F5D87303EB01131B6803F0040313727B
:10212000137A53B900F5D87303EB01131B6840F21F
:10213000FF7404EA5353136009E000F5D87303EB0E
:1021400001131B686FF0604404EAD303536000F589
:10215000D87303EB01131B6803F00203537200F5FD
:10216000D87303EB01135B6803F00F03937200F560
:10217000D87303EB01135B681B0AD37400F5D873A3
:1021800003EB01139B68D37200F5D87303EB0113C3
:102190009B681C0A147300F5D87303EB01139B684A
:1021A0001C0C547300F5D87303EB01139B681B0ED2
:1021B000937300F5D87303EB0113DB68D37300F559
:1021C000D87303EB0113DB681C0A147400F5D87391
:1021D00003EB0113DB681C0C547400F5D87303EB9C
:1021E0000113DB681B0E937421B9C36843F020030D
:1021F000C36003E0036943F02003036110BD0021C5
:102200008171C171017241728172C1728170C1703C
:1022100003210171022141710121018070470000F9
:1022200000B58BB00121082002F060F801214806BA
:1022300002F06CF8092201213B4800F05AFF092204
:102240000021394800F055FF0320029002208DF84C
:102250000C0002A9344800F004FF14208DF804009B
:1022600002208DF8050001208DF806008DF807008A
:1022700001A801F063FE13208DF8040001208DF801
:1022800005008DF806008DF8070001A801F056FE44
:102290002648FFF779FD08A8FFF7B1FF00208DF869
:1022A00026008DF827008DF828008DF829008DF87C
:1022B0002A0001208DF82B0000208DF822008DF8D7
:1022C000230008208DF8240004208DF82500032029
:1022D000ADF8200008A91548FFF78FFE00208DF803
:1022E0001A008DF81B0001208DF81C000020ADF8AD
:1022F0001000ADF81200ADF81400ADF81600ADF8FE
:10230000180001208DF81D0004A8FFF759FD0122D7
:1023100002210648FFF768FE012211460348FFF735
:1023200063FE0BB000BD0000000C024000640040E2
:1023300000B58BB00121022001F0D8FF01218806F1
:1023400001F0E4FF09220C213C4800F0D2FE0922F2
:102350000D213A4800F0CDFE4FF44050029002208B
:102360008DF80C0002A9354800F07BFE40208DF866
:10237000040001208DF805008DF806008DF8070097
:1023800001A801F0DBFD3F208DF8040000208DF84E
:10239000050001208DF806008DF8070001A801F066
:1023A000CDFD2748FFF7F0FC08A8FFF728FF002025
:1023B0008DF826008DF827008DF828008DF829006B
:1023C0008DF82A0001208DF82B0000208DF82200C6
:1023D0008DF8230008208DF8240004208DF82500B6
:1023E0000320ADF8200008A91548FFF706FE0E20CF
:1023F0008DF81A0000208DF81B0001208DF81C00BC
:102400000020ADF81000ADF81200ADF81400ADF8E2
:102410001600ADF8180001208DF81D0004A8FFF784
:10242000CFFC012202210648FFF7DEFD0122114602
:102430000348FFF7D9FD0BB000BD000000040240C7
:102440000068004010B504462068A0F2012006286C
:102450001BD2DFE800F0031B334B639F032000F027
:10246000EFFD6D480078C0F3C00050B921466B48BD
:1024700000F073FE6848008840F008006649088054
:1024800003E02146654800F0A1FCBFE0042000F015
:10249000D7FD61480078C0F3001050B9214660486C
:1024A00000F05BFE5C48008840F010005A4908804C
:1024B00003E021465A4800F089FCA7E0052000F01F
:1024C000BFFD55480078C0F3401050B9214655482B
:1024D00000F043FE5048008840F020004E4908803C
:1024E00003E021464F4800F071FC8FE0062000F029
:1024F000A7FD49480078C0F3801050B921464A48EA
:1025000000F02BFE4448008840F04000424908801B
:1025100003E02146444800F059FC77E0072000F032
:102520008FFD3D480078C0F3C01058B93F48B0F85F
:1025300027003F4988613848008840F080003649CC
:10254000088003E021463A4800F040FC00F036FEE7
:1025500001281ED13648806935498968401A10F52E
:102560007A6F07DA3148B0F8270000F5005030499B
:1025700088610EE02E4880692D498968401AB0F5BF
:102580007A6F06DD2948B0F82700A0F500502849E9
:1025900088613BE0082000F053FD1F480088C0F32D
:1025A000002058B92148B0F82500224988611A480E
:1025B000008840F480701849088003E021461D48D7
:1025C00000F004FC00F0FAFD01281ED119488069D2
:1025D00018498968401A10F57A6F07DA1348B0F87D
:1025E000250000F50050134988610EE0114880690C
:1025F00010498968401AB0F57A6F06DD0B48B0F8CB
:102600002500A0F500500B49886100BF00BF0A20DB
:1026100000F016FD10BD00003E0000204C07002019
:1026200090070020D407002018080020E8090020A7
:102630005C080020A008002010B52DED028BB0EE44
:10264000408A6F480078032820D06D480078E8B1B0
:102650006C48007820B1012814D0022814D112E06F
:102660009FED692A69496A48DFED6A1A9FED691A88
:10267000DFED680AB0EE480A01F0A6FC664880ED7E
:10268000000A02E001E000E000BF0EE09FED610AF9
:10269000614880ED000A9FED5F0A604880ED000A06
:1026A0009FED5C0A5E4880ED000A5C4890ED000AF0
:1026B000B1EE400ADFED5B0A20EE200A5848D0ED6B
:1026C000000A9FED581A00EE810A5348D0ED000A27
:1026D00030EE200A544880ED000A504890ED000A80
:1026E000DFED500A20EE200A4D48D0ED000A9FEDA4
:1026F0004D1A00EE810A4848D0ED000A30EE200A5B
:102700004A4880ED000A454890ED000ADFED450A91
:1027100020EE200A4248D0ED000A9FED421A00EE5A
:10272000C10A3D48D0ED000A30EE200A404880ED55
:10273000000A3A4890ED000AB1EE400ADFED390A8E
:1027400020EE200A3648D0ED000A9FED361A00EE42
:10275000C10A3148D0ED000A30EE200A354880ED3C
:10276000000A9FED292A2949243129481C30DFED30
:10277000291A9FED281ADFED270AB0EE480A01F06A
:1027800023FC2D4880ED000A9FED1F2A1F49483188
:102790001F481C30DFED1F1A9FED1E1ADFED1D0ACA
:1027A000B0EE480A01F010FC244880ED000A9FEDCD
:1027B000162A16496C3116481C30DFED161A9FEDAB
:1027C000151ADFED140AB0EE480A01F0FDFB1C48B3
:1027D00080ED000A9FED0C2A0C4990310C481C300A
:1027E000DFED0C1A9FED0B1ADFED0A0AB0EE480A76
:1027F00001F0EAFB134880ED000ABDEC028B10BD2E
:102800004600002047000020CDCC4C3EF40A0020BA
:10281000B3000020000000009C0000208400002085
:10282000880000209A99993D8C000020900000209B
:102830009400002098000020A0000020A4000020A8
:10284000A8000020AC00002000B5002300BF1BE062
:10285000124830F81300401C104921F813000846B4
:1028600030F813000E4931F8131088420ADB0120BA
:1028700098400C49096808430A4908600020074944
:1028800021F81300581CC3B20B2BE1D30648007883
:10289000012802D1092000F0D3FB00BD5C0000201C
:1028A000FA69000858000020B1000020024600200C
:1028B00002EA01030BB1012000E000207047000094
:1028C0000246094B9A4201D2084801E006481038F6
:1028D00001F000531BB1064B0B40C36002E0044BF8
:1028E0000B408360704700001064024000600240AB
:1028F0007D0F7D0F21B1026842F00102026003E00A
:10290000026822F00102026070470000016821F0B5
:10291000010101600021016041608160C1600161CD
:10292000212141614A49884204D13D21484A103A57
:1029300091608CE046491831884205D14FF47461AA
:10294000434A103A916082E041493031884205D1D2
:102950004FF474113E4A103A916078E03C49483196
:10296000884205D14FF07461394A103A91606EE0A7
:1029700037496031884204D13649354A103AD1602E
:1029800065E033497831884204D13349304A103AFE
:10299000D1605CE02E499031884204D12F492C4A05
:1029A000103AD16053E02A49A831884205D14FF04E
:1029B0003D51274A103AD16049E02949884204D163
:1029C0003D21274A083A116041E0254918318842E3
:1029D00005D14FF47461224A083A116037E020496A
:1029E0003031884205D14FF474111D4A083A116004
:1029F0002DE01B494831884205D14FF07461184AD7
:102A0000083A116023E016496031884204D1114927
:102A1000134A121F11601AE011497831884204D11B
:102A20000D490F4A121F116011E00D499031884283
:102A300004D10A490A4A121F116008E00849A83166
:102A4000884204D14FF03D51054A121F1160704772
:102A5000106002403D000020400F002000003D209B
:102A60001064024021B1026842F48022026003E057
:102A7000026822F480220260704722B1036843F4A6
:102A80000023036003E0036823F400230360016173
:102A90007047014600200A6802F001020AB10120D5
:102AA00000E0002070470146486880B27047014648
:102AB00000200A6802F400220AB1012000E0002090
:102AC0007047000010B500220268134B1A40CC6812
:102AD0000B6823434C6923438C692343CC6923430C
:102AE0000C6A23434C6A23438C6A23434C6B234375
:102AF0008C6B23431A430260426922F00702D1E93A
:102B00000B3423431A4342610B6943604B68836073
:102B10008B68C36010BD00003F801CF00021016085
:102B200041608160C160016141618161C161016297
:102B300041628162C1620163416381637047704792
:102B400000B5034603E04FF47A7000F005F8181E54
:102B5000A3F10103F7D100BD044A116800BF034A85
:102B60001268521A8242FAD370470000240C0040C7
:102B700010B52DED028B0446032000F0F9FA08EEA3
:102B8000100AB8EE480ADFED060A80EE201AF0EED1
:102B9000418AB0EE680A00F063FABDEC028B10BD0A
:102BA0000024744910B52DED028B0446002000F07E
:102BB000DFFA08EE100A204602F01EFD00F0E8FEE3
:102BC000B8EE480ADFED1B0A80EE201AF0EE418ACB
:102BD0001948806804EE900A1748406804EE100A0D
:102BE0001548006803EE900A1448806803EE100A46
:102BF0001248406802EE900A1048006802EE100A7F
:102C00000F48806801EE900A0D48406801EE100AF6
:102C10000B48006800EE900ADFED0A5A9FED0A5A51
:102C20000A4A0B490B48B0EE680AFDF7A3FFBDEC5A
:102C3000028B10BD002474493E07002024060020AA
:102C400018060020000000008FC2F53D9C01002006
:102C5000980100209401002070B50546042000F082
:102C600087FA044670BD70B50546012000F080FA71
:102C7000044670BD30B5B3B0054600240E48007858
:102C800001280BD10D480078012807D181030C4899
:102C900000F05FFA80210B4800F05BFA0A49CA6B2A
:102CA00001A9081909A102F0FBFC0444E1B201A842
:102CB00002F050FB33B030BD46000020B1000020D0
:102CC00000140240001002404C07002025640A0056
:102CD00010B52DED028B0446022000F049FA08EEF3
:102CE000100A00F0CBFBFFF7AFFDB8EE480ADFEDAE
:102CF0000C0A80EE201AF0EE418AB0EE680AFFF767
:102D00009BFCB8EE480ADFED060A80EE201AF0EED2
:102D1000418AB0EE680A00F057FABDEC028B10BD94
:102D20000024744910B5062000F022FA25480068F6
:102D3000401C2449086008460068FFF733FF21481B
:102D4000007800F0010018B91E480068FFF78BFFFB
:102D50001C4800680521B0FBF1F201FB120018B914
:102D600018480068FFF7B4FF164800680A21B0FB56
:102D7000F1F201FB120018B912480068FFF7F8FEE3
:102D8000104800681421B0FBF1F201FB120018B9E1
:102D90000C480068FFF760FF0A4800683221B0FB6A
:102DA000F1F201FB120018B906480068FFF762FF54
:102DB000062000F0DDF9B0F57A7F02D20A2000F09B
:102DC0003FF910BD540000207047000070B500228C
:102DD0000023046844600C7BCD7A44EA0524046037
:102DE00004684568641BC460C4682B4DAC4207DAB4
:102DF000846B641C8463C46804F50054C4610EE0F1
:102E0000C46840F6B835AC4207DD846B641E846349
:102E1000C468A4F50054C46101E0C468C4610568D5
:102E2000846B05EB4434846004688569641B00EEA0
:102E3000104AB8EEC00ADFED190A20EE200A9FED15
:102E4000181AC0EE010A846B4FF4B4756C4300EE9F
:102E5000104AB8EEC00A30EE800A80ED100AC6694A
:102E6000047D651C057500F1200545F82460047D8E
:102E7000062C01D100240475002205E000F1200495
:102E800054F822402344521C062AF7DB062493FB05
:102E9000F4F4C46370BD000048F4FFFF0000B443C5
:102EA0000000004630B10749096841F48061054AD5
:102EB000116005E00349096821F48061014A11604D
:102EC00070470000003C024070B504460A460026E8
:102ED000082502B909E0012A01D1160205E0022AFB
:102EE00001D1160201E04FF4407600F097F8054654
:102EF000082D28D11548006820F440701349086057
:102F000008460068304308600846006820F0F80072
:102F100008600846006844F0020108430B49086055
:102F20000846006840F48030086000F077F80546F5
:102F30000648006820F0020004490860084600685E
:102F400020F0F8000860284670BD0000103C0240E8
:102F500008201049096801F48031B1F5803F01D1A2
:102F6000012015E00B49096801F0100109B10520A5
:102F70000EE00849096801F0EF0109B1062007E0F9
:102F80000449096801F0020109B1072000E00820A6
:102F9000704700000C3C02400348006840F00040CD
:102FA0000149086070470000103C024030B50246FD
:102FB0000C46082500F032F80546082D17D10D48BB
:102FC000006820F440700B490860084600680860FB
:102FD0000846006840F001000860147000F01EF818
:102FE00005460448006820F00100024908602846B0
:102FF00030BD0000103C02400548006800F0004071
:1030000028B1044802490C39086003480860704739
:10301000103C024023016745AB89EFCD08B508207D
:103020000090FFF795FF009002E0FFF791FF0090FE
:103030009DF800000128F8D09DF8000008BD0000B0
:103040000021054A22F8101001218140034A12682C
:103050008A4302490A6070475C0000205800002043
:103060007047F0B50A4600210023002400BF3DE070
:10307000012505FA01F3156805EA03049C4234D1E1
:1030800005684F000326BE40B543056015794E0024
:10309000B5400668354305601579012D02D01579D4
:1030A000022D16D185684F000326BE40B5438560CA
:1030B00055794E00B54086683543856045680126E0
:1030C0008E40B5434560456896798E40B6B235432B
:1030D0004560C5684F000326BE40B543C560D5793D
:1030E0004E00B540C6683543C560491C1029BFD3A2
:1030F000F0BDF0B5002300244D07ED0E02FA05F3F4
:10310000CE1000F1200555F826504E07F70E0F2679
:10311000BE40B543CF1000F1200646F82750CE1030
:1031200000F1200555F8265045EA0304CE1000F1C1
:10313000200545F82640F0BD418370470183704764
:103140004FF6FF7101600021017141718171C17100
:10315000704742694A40426170470A7BCB7A42EA33
:103160000322826182698260826942607047000046
:1031700001460A4850F82100084A503A42F8210016
:1031800007480268054840F8212050F82100034A0A
:10319000503A52F82120801A70470000C8020020DF
:1031A000240C004010B5002000F0AAFA08B103205A
:1031B00010BD0148407AFBE7E40800200148007890
:1031C0007047000046000020704700BFFEE7000087
:1031D0000348007840F00200014908707047000081
:1031E000B00000200348007840F001000149087059
:1031F00070470000B00000200348007840F0040051
:103200000149087070470000B000002010B59248D6
:10321000007800F0040000287DD04FF480418F48F2
:10322000FFF797FF80218E48FFF793FF8D480068D6
:1032300000EE100AB5EEC00AF1EE10FA04DD89487E
:10324000006800EE100A05E08648006800EE100AEB
:10325000B1EE400ADFED840AB4EEE00AF1EE10FAB6
:103260007DD28048406800EE100AB5EEC00AF1EE4B
:1032700010FA04DD7B48406800EE100A05E079484A
:10328000406800EE100AB1EE400ADFED770AB4EEB6
:10329000E00AF1EE10FAE3D27248806800EE100AFC
:1032A000B5EEC00AF1EE10FA04DD6E48806800EE5B
:1032B000100A05E06B48806800EE100AB1EE400A83
:1032C000DFED690AB4EEE00AF1EE10FAC8D2654803
:1032D000006800EE100A6548006800EE900AB4EE3F
:1032E000E00AF1EE10FA02DD5E48006801E05F4896
:1032F00000685E4908605B48406800EE100A0846B6
:10330000406800EE900AB4EEE00AF1EE10FA03DD38
:103310005448406802E09DE0544840685349486082
:103320005048806800EE100A0846806800EE900A57
:10333000B4EEE00AF1EE10FA02DD4A48806801E0DE
:103340004A488068494988604648006800EE100A8B
:103350004748006800EE900AB4EEE00A00E074E02E
:10336000F1EE10FA02D23F48006801E040480068E0
:103370003F4908603B48406800EE100A0846406834
:1033800000EE900AB4EEE00AF1EE10FA02D23548EF
:10339000406801E0364840683549486031488068F7
:1033A00000EE100A0846806800EE900AB4EEE00ACB
:1033B000F1EE10FA02D22B48806801E02C488068B8
:1033C0002B4988602B48008841F2707188423CD1BB
:1033D0002648006800EE100A2548006800EE900AB2
:1033E00030EE200AF6EE000A20EE200A10EE100A57
:1033F000214988611D48406800EE100A1C48406859
:1034000000EE900A30EE200AF6EE000A20EE200AC6
:1034100010EE100AC8611548806800EE100A1448C2
:10342000806800EE900A30EE200AF6EE000A20EEE8
:10343000200A10EE100A086200200E490880064893
:10344000007820F00400044908700A480088401CF5
:103450000849088010BD0000B000002000140240A0
:1034600000100240320700200000484423000020E2
:103470002F0000203C000020C409002010B500F0FF
:10348000AFF8FFF7C3FE1648006800EE100A1548B3
:10349000806900EE900A30EE600AB1EE400A10EE4C
:1034A000100A114908600E48406800EE100A0D48E5
:1034B000C06900EE900A30EE600AB1EE400A10EEEC
:1034C000100A48600648806800EE100A0548006A45
:1034D00000EE900A30EE600A10EE100A886010BD0F
:1034E00032070020C40900203E07002010B530211B
:1034F0006A2000F0C3FC2820FFF722FB0D212420C6
:1035000000F0BCFC2820FFF71BFB0E21282000F058
:10351000B5FC2820FFF714FB8E21312000F0AEFC13
:103520002820FFF70DFB01210B2000F0BEF8002042
:1035300000F09EF8102801D0012010BD2820FFF7D0
:10354000FFFA00210A2000F0B0F80A2000F090F8FD
:1035500008B10220F1E72820FFF7F2FA00210B2042
:1035600000F0A3F80B2000F083F808B10320E4E793
:103570002820FFF7E5FA2421412000F096F84120A9
:1035800000F076F8242801D00420D6E72820FFF7A1
:10359000D7FAC021422000F088F8422000F068F8F5
:1035A000C02801D00520C8E72820FFF7C9FA00216C
:1035B0002A2000F063FC2820FFF7C2FA0021342003
:1035C00000F05CFC2820FFF7BBFA062203210E2046
:1035D00000F06AFC6420FFF7B3FA0020ADE70000BA
:1035E00010B5002400BF0CE01E4909782144C8B280
:1035F00000F02EFC1C4908550120FFF7ADFA601CB5
:10360000C4B2062CF0DB184800781749497840EA24
:10361000012000B200EE100AB8EEC00A10EE100A47
:1036200012490860104880780F49C97840EA0120A3
:1036300000B200EE100AB8EEC00A10EE100A0B49F4
:103640004860094800790849497940EA012000B2F8
:1036500000EE100AB8EEC00A10EE100A03498860A6
:1036600010BD0000220000201C00002032070020B6
:1036700070B504462146322000F000FC0220FFF71E
:103680005FFA8021342000F0F9FB0220FFF758FA9E
:10369000352000F0DDFB05460021342000F0EEFB74
:1036A0000220FFF74DFA284670BD70B504460D465E
:1036B00000212A2000F0E2FB0220FFF741FA214618
:1036C000292000F0DBFB0220FFF73AFA29466420AC
:1036D00000F0D4FB0220FFF733FA81212A2000F00A
:1036E000CDFB0A20FFF72CFA70BD00B5002300BF08
:1036F00003E01846FFF73CFD5B1C0B2BF9DB00BD1C
:10370000014601228A4001208840044B1B68184072
:10371000824201D1012070470020FCE758000020C0
:103720001CB50121102000F0E1FD80200090012057
:103730008DF8040000208DF8060003208DF80500A8
:1037400001208DF8070069461148FFF78AFC012126
:10375000202000F0CBFD4FF48040009001208DF838
:10376000040000208DF8060003208DF805000120DC
:103770008DF8070069460748FFF773FC4FF4804156
:103780000448FFF7D9FC80210148FFF7D7FC1CBD96
:10379000001002400014024010B57248007800F09A
:1037A000020000286AD070480088401C6E490880DA
:1037B0006E48D0ED000A6E48B0F9000000EE100A25
:1037C000B8EEC00A30EE800A684880ED000AD0EDFD
:1037D000010A6748B0F9020000EE100AB8EEC00A0C
:1037E00030EE800A614880ED010AD0ED020A60489F
:1037F000B0F90400A0F5805000EE100AB8EEC00A3F
:1038000030EE800A594880ED020A08460088A02858
:1038100030DB5648D0ED000A9FED561A80EE810A43
:1038200010EE100A5449C8605048D0ED010A9FEDCF
:10383000511A80EE810A10EE100A08614B48D0ED53
:10384000020A9FED4C1A80EE810A10EE100A4861C0
:103850000020454908809FED490A444880ED020A4E
:1038600080ED010A80ED000A3E48007820F0020059
:103870003C49087080214248FFF76BFC39480078CA
:1038800000F0010000286BD03E480088401C3D49F4
:1038900008803648D0ED040A3B48B0F9000000EE3D
:1038A000100AB8EEC00A30EE800A304880ED040AF3
:1038B000D0ED030A3448B0F9020000EE100AB8EE69
:1038C000C00A30EE800A294880ED030AD0ED050ACF
:1038D0002D48B0F9040000EE100AB8EEC00A30EE30
:1038E000800A224880ED050A08460088A02832DBBD
:1038F0001E48D0ED040A9FED1F1A80EE810A10EEDB
:10390000100A1D4908601948D0ED030A9FED191AE5
:1039100080EE810A10EE100A48601448D0ED050AC6
:103920009FED141A80EE810A10EE100A88600020C4
:10393000144908809FED110A0C4880ED060A80EDBD
:10394000050A80ED030A80ED040A0648007820F09D
:103950000100044908704FF480410C48FFF7F9FB5F
:1039600010BD0000B000002016000020440600201A
:103970000A00002000002043C409002000000000CD
:103980000010024018000020100000200014024027
:1039900010B588B01C2101A8FCF73DFC002400F004
:1039A00001FAFFF7F9FEFFF7F7FECB48B0F9000088
:1039B00000EE100AF8EEC00AC848C06800EE100A0F
:1039C00030EEC00AC64880ED000AC348B0F90200D4
:1039D00000EE100AF8EEC00AC048006900EE100AB6
:1039E00030EEC00ABE4880ED010ABB48B0F90400C1
:1039F00000EE100AF8EEC00AB848406900EE100A5E
:103A000030EEC00AB64880ED020AB648B0F90000B0
:103A100000EE100AF8EEC00AB048006800EE100A86
:103A200030EEC00AAE4880ED040AAE48B0F902009C
:103A300000EE100AF8EEC00AA848406800EE100A2E
:103A400030EEC00AA64880ED030AA648B0F904008B
:103A500000EE100AF8EEC00AA048806800EE100AD6
:103A600030EEC00A9E4880ED050A9F480078401C51
:103A7000C0B29D4908700A2805DD002008700120A9
:103A80009A4908700AE0984800780A2801D1002075
:103A900002E095480078401C94490870904890EDE9
:103AA000000ABDEEC00A10EE100A00B290498E4A1C
:103AB000127821F812008A4890ED010ABDEEC00A82
:103AC00010EE100A01B28A481630874A127820F8A0
:103AD0001210834890ED020ABDEEC00A10EE100AE3
:103AE00001B283482C30804A127820F812107C48AA
:103AF00090ED040ABDEEC00A10EE100A01B27C4837
:103B00005830794A127820F81210754890ED030A5F
:103B1000BDEEC00A10EE100A01B275484230724A7A
:103B2000127820F812106E4890ED050ABDEEC00A1A
:103B300010EE100A01B26E486E306B4A127820F80F
:103B40001210002453E0DDED010A694830F9140039
:103B500000EE100AB8EEC00A30EE800A8DED010AC0
:103B6000DDED020A6248163030F9140000EE100A4A
:103B7000B8EEC00A30EE800A8DED020ADDED030AD0
:103B80005B482C3030F9140000EE100AB8EEC00A81
:103B900030EE800A8DED030ADDED050A54485830F9
:103BA00030F9140000EE100AB8EEC00A30EE800AB8
:103BB0008DED050ADDED040A4D48423030F9140060
:103BC00000EE100AB8EEC00A30EE800A8DED040A4D
:103BD000DDED060A46486E3030F9140000EE100A9A
:103BE000B8EEC00A30EE800A8DED060A641C0A2C7D
:103BF000A9DB9DED010AF2EE040A80EE201A3D4891
:103C000080ED001A9DED020AF2EE040A80EE201A01
:103C100080ED011A9DED030AF2EE040A80EE201AEF
:103C200080ED021A9DED050AF2EE040A80EE201ADC
:103C300080ED041A9DED040AF2EE040A80EE201ACB
:103C400080ED031A9DED060AF2EE040A80EE201ABA
:103C500080ED051A006828490860264840684860D9
:103C60002448806888602348006924490860214806
:103C7000C06848601F48406988600846006800EED8
:103C8000100ADFED1F0A20EE200AF6EE000A20EEF1
:103C9000200A10EE100A08600846406800EE100A7C
:103CA000DFED170A20EE200AF6EE000A20EE200AC9
:103CB00010EE100A48600846806800EE100ADFED3A
:103CC000100A20EE200AF6EE000A20EE200A10EE7E
:103CD000100A886008B010BD0A000020C409002046
:103CE00060060020100000201A0000201B000020A9
:103CF000980600207C0600201806002024060020DC
:103D000000007A3D10B5752000F0A2F8702847D168
:103D10006420FEF715FF80216B2000F0AFF86420CF
:103D2000FEF70EFF0721682000F0A8F86420FEF7D8
:103D300007FF01216B2000F0A1F86420FEF700FFCF
:103D400030216A2000F09AF86420FEF7F9FE002185
:103D5000192000F093F86420FEF7F2FE10211B20DA
:103D600000F08CF86420FEF7EBFE04211A2000F02E
:103D700085F86420FEF7E4FE10211C2000F07EF898
:103D80006420FEF7DDFE04211D2000F077F864209A
:103D9000FEF7D6FE00216C2000F070F8002010BD68
:103DA0000120FCE710B540212548FFF7C5F9BB20ED
:103DB00000F026FC002406E0FF2000F021FC214951
:103DC0000855601CC4B20E2CF6DB1E4840781D4915
:103DD000097840EA012000B21B4908801948C078E0
:103DE0001849897840EA012000B2174948801548EF
:103DF00040791449097940EA012000B212498880CB
:103E00001048407A0F49097A40EA012000B20F4970
:103E100008800C48C07A0B49897A40EA012000B238
:103E20000A4948800748407B0649097B40EA01204F
:103E300000B20649888040210148FFF77FF910BD94
:103E400000140240300600200A000020100000206C
:103E500070B5044640210848FFF76EF944F0800031
:103E600000F0CEFBFF2000F0CBFB054640210248CE
:103E7000FFF764F9284670BD0014024070B505468E
:103E80000C4640210748FFF757F9284600F0B8FBD9
:103E90000646204600F0B4FB40210248FFF74EF9E9
:103EA000304670BD0014024070B504460E461546FB
:103EB00021462820FFF7E2FF2820FEF741FE0A21D5
:103EC0002920FFF7DBFF2820FEF73AFE01216420BE
:103ED000FFF7D4FF2820FEF733FE44F080012520B1
:103EE000FFF7CCFF2820FEF72BFE31462620FFF7F8
:103EF000C5FF2820FEF724FE04213420FFF7BEFF73
:103F00002820FEF71DFE03216720FFF7B7FF2820BA
:103F1000FEF716FE81212A20FFF7B0FF2820FEF7CA
:103F20000FFE45F080012720FFF7A8FF2820FEF7AD
:103F300007FE70BD00BFFEE77047000070B50021AE
:103F400000230F22C4781CB3174C246804F4E064E7
:103F5000C4F5E064C4F30721C1F10404E3B20A41EB
:103F600044789C40E1B28478144021430C07210E30
:103F70000E4C05786155047804F01F050124AC400F
:103F800005786D11AD0005F1E025C5F8004109E0A7
:103F9000047804F01F050124AC40054D0678761125
:103FA00045F8264070BD00000CED00E000E400E0A4
:103FB00080E100E002490143024A116070470000BD
:103FC0000000FA050CED00E0F0EE402AB0EE603A99
:103FD000426903EE902AF5EEC03AF1EE10FA02D2F1
:103FE000DFED653A0FE0426903EE902AB7EE004A32
:103FF000F4EEC43AF1EE10FA02DDF7EE003A02E018
:10400000426903EE902A13EE902A4261F5EEC02A2F
:10401000F1EE10FA02D1DFED583A03E0B7EE004AB4
:10402000C4EE223A91ED024A31EEC44AFFEE004A54
:1040300024EE244A63EE843AC1ED033A71EE613A0C
:10404000C1ED003AF5EEC02AF1EE10FA02D1DFED33
:104050004A3A03E0B7EE004AC4EE223A91ED004A34
:10406000D1ED014A34EE644A63EE843AC1ED043A7C
:10407000826803EE902A91ED044A23EE844AC268D6
:1040800003EE902AD1ED034AF0EE440A43EEA40A6F
:10409000026903EE902A9FED394A63EE843A23EEDB
:1040A000A24AF7EE004AC4EE843AB7EE004A73EE35
:1040B000843AF7EE004A84EEA34AD1ED053A70EE59
:1040C000E34AD1ED053A44EE243AC1ED053AD1ED8B
:1040D000003AC26804EE102AD1ED034A44EE243AB5
:1040E00091ED064A03EEA24A81ED064AD1ED063A69
:1040F000B1EE424AF4EEC43AF1EE10FA02D2F1EE19
:10410000423A0BE0D1ED063AF4EEC23AF1EE10FA83
:1041100002DDF0EE423A01E0D1ED063AC1ED063A99
:10412000026803EE902A91ED004A63EE843A8269B8
:1041300004EE102A44EE033A426904EE102AD1ED4F
:10414000054A44EE243A04EE102AF7EE004A34EE13
:10415000C44A44EE203A426804EE102AD1ED064AE1
:10416000B0EE630A04EE240AC1ED021AD1ED003A62
:10417000C1ED013A7047000000000000C3F5C840DF
:1041800000B58BB00121802000F0B0F80121402063
:1041900000F0BCF84FF41070099002208DF8280050
:1041A00003208DF8290009A92748FEF75AFF0922A4
:1041B00006212548FEF79DFF092211462248FEF7F9
:1041C00098FF5920ADF818000020ADF81A0040F60D
:1041D000C41007900020ADF8200006A91B4800F08D
:1041E00099FC7020ADF804000120ADF80600002015
:1041F000ADF808004FF47A7003900220ADF810007B
:104200000020ADF81200ADF814004FF48070ADF846
:10421000160001A90D4800F0D5FB01A90B4800F0DC
:1042200019FC0821094800F00BFC0821074800F0A0
:1042300063FC0121054800F08DFB0121034800F0DB
:104240009BFB0BB000BD0000001C024000180040AA
:1042500010B500240B480078012812D100BF0EE0F1
:10426000C4EBC403074A293202EB8301C4EBC40246
:10427000054B03EB82001C22FBF7B4FF641C082CE7
:10428000EEDB10BDE8090020B300002010B50024CB
:1042900000BF0DE0C4EBC4020F4B03EB8201C4EB83
:1042A000C4030E4A02EB83001C22FBF79BFF641C35
:1042B000082CEFDB0120094929390870242208491C
:1042C00006482838FBF78EFF40F2091203492939C6
:1042D0000448FDF74FF910BDB3000020110A00207B
:1042E000C409002000000E087047000029B1064AEA
:1042F00012680243044B1A6004E0034A12688243C6
:10430000014B1A60704700003038024029B1064A5C
:1043100012680243044B1A6004E0034A12688243A5
:10432000014B1A60704700004038024029B1064A2C
:1043300012680243044B1A6004E0034A1268824385
:10434000014B1A60704700002038024029B1064A2C
:1043500012680243044B1A6004E0034A1268824365
:10436000014B1A60704700004438024029B1064AE8
:1043700012680243044B1A6004E0034A1268824345
:10438000014B1A607047000024380240F0B500214C
:1043900000220024022500260223324F3F6807F046
:1043A0000C0121B1042905D0082937D105E02E4F91
:1043B000076036E02D4F076033E02A4F3F1F3F680C
:1043C000C7F38056274F3F1F3F6807F03F036EB18A
:1043D000264FB7FBF3F7DFF88CC0ACF1040CDCF828
:1043E00000C0CCF3881C07FB0CF40CE01E4FB7FB9D
:1043F000F3F7DFF870C0ACF1040CDCF800C0CCF3CC
:10440000881C07FB0CF4174F3F1F3F68C7F3014799
:104410007F1C7D00B4FBF5F7076002E0124F0760D8
:1044200000BF00BF0F4F3F6807F0F0010909104FB0
:104430007A5C0768D74047600A4F3F6807F4E0514D
:10444000890A0B4F7A5C4768D7408760054F3F6801
:1044500007F46041490B064F7A5C4768D740C76054
:10446000F0BD0000083802400024F400001BB70033
:104470002502002000B970470278437842EA0322FF
:10448000C2F30A02244B1A804278D210837842EA9F
:104490004312C2F30A02204B5A8082789211C378E9
:1044A00042EA8302037942EA8322C2F30A021A4BE8
:1044B0009A8002795210437942EAC312C2F30A0287
:1044C000154BDA804279121192081A724279C2F3BE
:1044D00001125A728279C37942EA032212B20E4B58
:1044E0005A81027A437A42EA032213B20A4A93813A
:1044F000827AC37A42EA032213B2074AD381037B4A
:104500009374437BD374827BC37B42EA0322024BC6
:104510009A8200BFAFE70000E408002010B500F069
:104520004BFD10BD00B587B001212020FFF7DEFE56
:104530004020059001208DF8180003208DF8190007
:1045400005A92D48FEF78DFD01210805FFF7FEFEA8
:104550004FF46070059002208DF8180000208DF84F
:104560001A0003208DF8190001208DF81B0005A901
:104570002148FEF776FD052207211F48FEF7B9FD09
:10458000052208211C48FEF7B4FD052209211A481E
:10459000FEF7AFFD01210805FFF7E8FE00214FF40B
:1045A0008010FFF7E3FE0020ADF800004FF48270AA
:1045B000ADF802000020ADF804000220ADF80600BE
:1045C0000120ADF808004002ADF80A003820ADF82F
:1045D0000C000020ADF80E000720ADF81000694671
:1045E000064800F051F80121044800F033F8FF209C
:1045F00000F006F807B000BD001402400050014072
:1046000070B50546002405E0601CC4B2FA2C01DD3B
:10461000002070BD02210E4800F028F80028F3D0D9
:1046200029460B4800F02EF8002405E0601CC4B2B7
:10463000FA2C01DD0020ECE70121054800F016F816
:104640000028F3D0024800F01AF8C0B2E1E70000F9
:104650000050014021B1028842F04002028004E093
:1046600002884FF6BF731A4002807047024600204E
:1046700013890B400BB1012000E000207047014678
:10468000888970478181704710B50022028802F442
:1046900041520B884C8823438C882343CC88234386
:1046A0000C8923434C8923438C892343CC8923439E
:1046B0001A430280838B4FF2FF74234083830B8A5B
:1046C000038210BD7047000010B540F2091209497D
:1046D0000948FCF73BFF07480078012808D124224D
:1046E0000449491C0548FBF77DFD01200449087079
:1046F00010BD0000E809002000000E08C4090020D9
:10470000B10000200CB500200190009034480068F2
:1047100040F480303249086000BF3148006800F43E
:10472000003000900198401C0190009818B9019841
:10473000B0F5A06FF1D12A48006800F4003010B144
:104740000120009001E0002000900098012846D14F
:1047500023484030006840F08050214940310860D3
:104760002048006840F480401E4908601C4808301A
:1047700000681B49083108600846006840F40040A2
:1047800008600846006840F4A05008601648091FF9
:104790000860081F006840F08070091F086000BFB3
:1047A0000F48006800F000700028F9D040F2056062
:1047B0000E4908600A480830006820F003000849E4
:1047C000083108600846006840F00200086000BF39
:1047D00003480830006800F00C000828F8D10CBD30
:1047E00000380240007000400C5A4007003C024074
:1047F00010B51548006840F470001349086013486C
:10480000006840F001001149086000200F4908319C
:1048100008600E4800680E4908400C4908600D48C1
:10482000091D0860081F006820F48020091F086027
:10483000002006490C310860FFF764FF4FF000606C
:1048400001498039086010BD88ED00E00038024061
:10485000FFFFF6FE103000240EB501210820FFF7FF
:1048600055FD4FF0FF3001905920ADF800000020B9
:10487000ADF80800ADF802000121064800F06AF822
:104880006946044800F046F90121024800F074F836
:104890000EBD0000000C004010B50121064800F0DC
:1048A00077F838B10121044800F063F8012102488B
:1048B00000F05CF810BD0000000C00401FB50121A5
:1048C0001020FFF723FD36208DF8000003208DF81F
:1048D00001008DF8020001208DF803006846FFF703
:1048E0002DFB5920ADF804000020ADF80600ADF80E
:1048F0000C0040F2E730029001A9024800F00AF9EA
:104900001FBD00000010004010B50121074800F055
:104910003FF848B10121054800F02BF80121034878
:1049200000F024F8FEF7FEF910BD00000010004072
:1049300010B50121064800F01FF801221146044875
:1049400000F037F80121024800F010F810BD000017
:104950000010004021B1028842F08002028004E091
:1049600002884FF67F731A4002807047CA43028262
:104970007047CA430282704721B1028842F00102A7
:10498000028004E002884FF6FE731A4002807047EE
:1049900030B50246002000230024158A05EA0103F1
:1049A000958905EA010413B10CB1012000E0002053
:1049B00030BD1AB183890B43838102E083898B4325
:1049C0008381704770B5002400220023058C4FF6C8
:1049D000FE7635400584028C8388048B4FF68F75F4
:1049E0002C40B51E2C400D882C43751E2A408D8905
:1049F0002A434D882A43104DA84202D00F4DA842A9
:104A000013D14FF6F7752A40CD892A434FF6FB752F
:104A10002A408D882A434FF6FF652B404FF6FF55FD
:104A20002B400D8A2B434D8A2B43838004838D6852
:104A30004563028470BD0000000001400004014095
:104A40000A460021018B4FF6F77319401143018389
:104A50007047000070B5002400220023058C4FF63B
:104A6000EF7635400584028C8388048B48F6FF7509
:104A70002C404FF6FF452C400D884FF6FF7606EA96
:104A800005252C434FF6DF752A408D8906EA05156A
:104A90002A434D8806EA05152A43154DA84202D03F
:104AA000144DA8421DD14FF67F752A40CD894FF68F
:104AB000FF7606EA05152A434FF6BF752A408D8812
:104AC00006EA05152A434FF6FF352B404FF2FF75D6
:104AD0002B400D8A06EA85052B434D8A06EA85059B
:104AE0002B43838004838D688563028470BD00003E
:104AF00000000140000401400A460021018B4FF2F2
:104B0000FF7319404FF6FF7303EA02231943018331
:104B10007047000000220288184B98420ED0184BB4
:104B200098420BD0B0F1804F08D0164B984205D078
:104B3000154B984202D0154B984204D14FF68F7313
:104B40001A404B881A43124B984207D0114B984297
:104B500004D04FF6FF431A400B891A4302804B687A
:104B6000C3620B880385054B984202D0044B9842E0
:104B700001D18B7A038601238382704700000140B4
:104B8000000401400004004000080040000C004008
:104B9000001000400014004010B540F224412C48A1
:104BA00000F042F9002851D0294800882848808820
:104BB0002848FDF77CFF20BB00212648FDF79AFE20
:104BC0002448FDF770FFC0F11E00234908601E2035
:104BD0002049091D0860081F006840F40020091FD3
:104BE000086001211B48FDF785FE1B48006812285C
:104BF0002CD112211948FFF73DFC0020FEF720FAC6
:104C000024E000211348FDF775FE1248FDF74BFF25
:104C1000C0F11E00104908601E200E49091D0860E1
:104C2000081F006820F40020091F086001210948BE
:104C3000FDF760FE08480068122807D112210748D6
:104C40001E30FFF717FC0020FEF7FAF910BD000038
:104C50000010014040640240000000203C0200209F
:104C600010B540F22551084800F0DEF858B140F286
:104C70002551054800F04AF80348001D0088C4B2D9
:104C8000204600F045FA10BD0044004010B50E4823
:104C9000008800F0080018B10B48001D0088C4B25D
:104CA00040F22551084800F0BFF858B140F22551B4
:104CB000054800F02BF80448001D0088C4B22046C7
:104CC00000F0AEFB10BD00000048004010B50E48DB
:104CD000008800F0080018B10B48001D0088C4B21D
:104CE00040F22551084800F09FF858B140F2255194
:104CF000054800F00BF80448001D0088C4B22046A7
:104D000000F004FC10BD00000014014010B50022AA
:104D1000002340F66A14A14200D100BF0A12012408
:104D20009440A3B2DC43048010BD10B502460020BD
:104D3000108A20F470600B884C8823438C882343AE
:104D4000CC8823431843108210BD21B1828942F4DC
:104D50000052828104E082894DF6FF731A408281FD
:104D600070471AB1838A0B43838202E0838A8B43A4
:104D70008382704710B504462548844208D101213A
:104D80001020FFF7F3FA00211020FFF7EFFA3EE0C2
:104D90002048844209D101214804FFF7C7FA0021C5
:104DA0004FF40030FFF7C2FA31E01B48844209D1CA
:104DB00001218804FFF7BAFA00214FF48020FFF7A1
:104DC000B5FA24E01548844209D10121C804FFF74F
:104DD000ADFA00214FF40020FFF7A8FA17E01048C1
:104DE000844209D101210805FFF7A0FA00214FF400
:104DF0008010FFF79BFA0AE00A48844207D101219C
:104E00002020FFF7B3FA00212020FFF7AFFA10BDF2
:104E1000001001400044004000480040004C0040A9
:104E2000005000400014014070B5024600240023E9
:104E30000025002040F66A16B14200D100BFC1F340
:104E4000421501F01F03012606FA03F3012D02D1DA
:104E50009689334006E0022D02D1168A334001E0E4
:104E6000968A33400C12012606FA04F41688344060
:104E700013B10CB1012000E0002070BDF0B5034675
:104E8000002400260025002040F66A17B94200D110
:104E900000BF1846C1F3421401F01F06012707FAAC
:104EA00006F5012C01D10C3004E0022C01D11030A8
:104EB00000E014301AB107682F43076002E007686A
:104EC000AF430760F0BD00002DE9FF4705460E46E1
:104ED0000024A14600BFA046B08900B100BF2C8AC3
:104EE00024F44054F08804432C82AC8941F20C60D5
:104EF0008443B08831890843718908430443AC81F5
:104F0000AC8A24F44074B0890443AC826846FFF74D
:104F10003DFA2048854202D01F48854202D1DDF883
:104F20000C9001E0DDF80890A88900F4004040B141
:104F300009EBC90000EB091031684900B0FBF1F73B
:104F400007E009EBC90000EB091031688900B0FBEC
:104F5000F1F76420B7FBF0F004012009642101FBA4
:104F60001078A88900F4004040B1322000EBC8005E
:104F7000B0FBF1F000F00700044308E0322000EB42
:104F800008106421B0FBF1F000F00F0004432C8105
:104F9000BDE8FF8700100140001401404FF4165196
:104FA000016000218180C18001810C2141810021AB
:104FB0008181704700BFFEE700B597B00121022054
:104FC000FFF794F901218805FFF790F901211020DE
:104FD000FFF7BCF9072211464848FEF78AF815A8E2
:104FE000FEF7AEF88020159002208DF858000020C2
:104FF0008DF8590001208DF85B0015A93F48FEF798
:1050000030F83F48FFF7B6FE11A8FFF7C7FF3D484D
:1050100011900020ADF84800ADF84A004FF48060D0
:10502000ADF84C000420ADF84E000020ADF8500063
:1050300011A93348FFF748FF012240213048FFF70C
:1050400090FE3148FDF762FC01A8FDF767FD4FF0C7
:10505000006001902A48001D02902C480390002017
:1050600004901E200590002006904FF48060079069
:105070000020089009904FF480700A9000020B9075
:1050800000200C900D900E900F9001A91E48FDF786
:1050900019FD00221D491E311B48FDF7EEFC0121C0
:1050A0001948FDF7DFFC01211748FDF723FC2520F7
:1050B0008DF8400001208DF8410000208DF842005D
:1050C00001208DF8430010A8FEF738FF002240F2BF
:1050D00026610B48FFF7D2FE002240F227710848F4
:1050E000FFF7CCFE012240F224410548FFF7C6FE3F
:1050F00001210348FFF729FE17B000BD000402405C
:1051000000100140A0860100406402403C020020E3
:1051100010B504463448007838B9AA2C05D10120CE
:1051200031490870314804705CE02F48007801284C
:1051300007D1AF2C05D102202B4908702B484470B1
:1051400050E029480078022807D1F12C05DA032025
:10515000254908702548847044E0234800780328D6
:105160000CD1322C0ADA04201F4908701F48C47081
:105170001F48047000201F49087033E01A48007867
:10518000042819D11A480078002815DD184800783D
:10519000401E174908701748007816490978491CBD
:1051A000144A1170001D11490C5411480078C8B9F7
:1051B00005200D49087015E00B48007805280ED130
:1051C0000020094908700B480078001D07490C545D
:1051D00008480178491D0548FCF722FA02E0002042
:1051E0000149087010BD00004A0000202C09002071
:1051F000480000204900002010B598B00446012165
:105200004804FFF783F801210846FFF76FF80121F2
:105210004805FFF76BF826208DF8440000208DF834
:1052200045008DF8460001208DF8470011A8FEF7D3
:1052300085FE072202214348FDF75BFF0722032179
:105240004048FDF756FF04200F9002208DF84000E3
:105250008DF8410000208DF8420001208DF84300B8
:105260000FA93848FDF7FDFE08200F9002208DF8A9
:1052700040008DF8410001208DF8420000208DF89B
:1052800043000FA92F48FDF7ECFE14940020ADF861
:105290005400ADF85600ADF85800ADF85C000C2095
:1052A000ADF85A000020ADF84800ADF84A004FF4C0
:1052B0000070ADF84C000020ADF84E0014A9224853
:1052C000FFF702FE12A92048FFF72FFD012240F24E
:1052D00025511D48FFF7D2FD01211B48FFF735FD81
:1052E000012280211848FFF73CFD1848FDF70EFB0E
:1052F00000BF1648FDF7CDFB0028FAD14FF0006043
:1053000000901148001D0190114802904020039028
:105310000020049005904FF48060069000200790D4
:10532000089009904FF480300A9000200B900320E1
:105330000C9000200D900E9069460448FDF7C2FBCA
:1053400018B010BD0000024000440040A0600240C0
:105350001805002070B506460D4600212948FDF7C6
:10536000C9FA29492748FDF7ABFA2648FDF79BFB08
:105370002649088000240AE0315D2548027800783B
:10538000401C234B187023488154601CC4B2AC42AB
:10539000F2DB00240CE0204800781C490978401A10
:1053A0002044C0B21B49085C1C490855601CC4B2AB
:1053B00016480078A042EEDC08E03019134909884D
:1053C000401A007815490855601CC4B20F4800788F
:1053D0002844C0B2A042F0DC0D4800780E490870A5
:1053E00000BF0848FDF755FB0028FAD107480088A0
:1053F000284480B20349091D086001210148FDF7D6
:1054000079FA70BDA0600240000020200600002054
:1054100005000020180400200800002018050020C6
:1054200010B504463448007838B9AA2C05D10120BB
:1054300031490870314804705CE02F480078012839
:1054400007D1AF2C05D102202B4908702B4844709E
:1054500050E029480078022807D1F12C05DA032012
:10546000254908702548847044E0234800780328C3
:105470000CD1322C0ADA04201F4908701F48C4706E
:105480001F48047000201F49087033E01A48007854
:10549000042819D11A480078002815DD184800782A
:1054A000401E174908701748007816490978491CAA
:1054B000144A1170001D11490C5411480078C8B9E4
:1054C00005200D49087015E00B48007805280ED11D
:1054D0000020094908700B480078001D07490C544A
:1054E00008480178491D0548FCF79AF802E00020B9
:1054F0000149087010BD00004D0000205E09002029
:105500004B0000204C0000207047000010B50446FE
:105510003448007838B9AA2C05D1012031490870E7
:10552000314804705CE02F480078012807D1AF2C87
:1055300005D102202B4908702B48447050E02948BF
:105540000078022807D1F12C05DA032025490870DC
:105550002548847044E02348007803280CD1322C7D
:105560000ADA04201F4908701F48C4701F480470DD
:1055700000201F49087033E01A480078042819D128
:105580001A480078002815DD18480078401E174991
:1055900008701748007816490978491C144A117098
:1055A000001D11490C5411480078C8B905200D4957
:1055B000087015E00B48007805280ED10020094935
:1055C00008700B480078001D07490C540848017802
:1055D000491D0548FCF724F802E000200149087045
:1055E00010BD000050000020900900204E00002057
:1055F0004F0000207047000010B504462448007892
:10560000F0B12348007803281AD0FDF7CBFD02281B
:1056100003D100201E49087010BD41F28830844239
:1056200003D201201A490870F6E71A4800780128C9
:1056300003D0012016490870EEE7022014490870D3
:105640001348007808BBFDF7ADFD02281DD000BF50
:1056500000BF00BF00BF00BFBFF34F8F00BF00BF40
:1056600000BF0D48006800F4E0600C490843001DCD
:105670000949086000BF00BF00BFBFF34F8F00BFE4
:1056800000BF00BF00BF00BFFDE700BFC4E70000D0
:1056900046000020B10000200CED00E00000FA05FB
:1056A0000FB4084B10B504A902AA039800F082FFBA
:1056B000044602A9002001F01EF9204610BC5DF846
:1056C00014FB0000F768000803B40198410000983B
:1056D00050EAC12018BF04204A0D18BF40F0010055
:1056E00040F2FF72B2EB515F08BF40F002000128A8
:1056F00008BF052002B070474100080218BF04200F
:105700000A0E18BF40F001004FF07F4232EA01015B
:1057100008BF40F00200012808BF052070470000C4
:1057200010B54FF00E402DED028BB0EE408A18EE12
:10573000104A00EB4400B0F1506F4AD84FF0FC40E3
:10574000B0EB440F22D2B0EEC80AF7EE000A30EEFA
:10575000C00AF6EE000A60EE208A18EE900A01F008
:105760002DF901EE100A14F0004F1DBFDFED2D0AD8
:105770009FED2D0AB1EE411ADFED2C0A08BF9FED17
:105780002C0AF8EE001A21EE218A05E0DFED290A45
:1057900068EE088AB0EE600A9FED271ADFED271A3F
:1057A00030EE080A48EE811A9FED251A08EEA11A7C
:1057B000DFED241A48EE811A9FED231A08EEA11A94
:1057C00068EE281ABDEC028B01EE810A30EE200A49
:1057D00010BD4FF0E440B0EB440F0CD918EE100AA6
:1057E000FFF78AFF042808BF00F01CFEB0EE480A4D
:1057F000BDEC028B10BD4FF07F40B0EB440F07D2E1
:10580000B0EE480ABDEC028BBDE8104000F0FCBDD4
:10581000012000F0C9FEBDEC028BBDE8104000F095
:10582000F9BD00000000C9BF22AAFDB90000C93FB0
:1058300022AAFD390000000024FE1C3DC78AD83C86
:105840001E67383D1B93993DAFAA2A3E0000000019
:1058500070B59B482DED020B2DED068B079D25F0B5
:105860000044A04218DC9748844202DC0AD1069822
:1058700040B19DED060BBDEC068B02B0BDE870405B
:1058800000F09BBD002DCCBF9FED8F0B9FED900BCB
:10589000BDEC068B02B070BD8F48A04215DD8F486D
:1058A000A042D8BF4FF0FF3458DD9DED060B51EC00
:1058B000100BFFF709FF042808BF00F095FD9DEDD0
:1058C000060BBDEC068B02B070BD9DED060B51ECD6
:1058D000100B01F01DF8CDE9060181489FED828B88
:1058E000A0423CDD8248A0421FDD00249FED82AB38
:1058F0009DED060B53EC1A2B51EC100BFAF796FCAE
:105900009DED060B41EC190B53EC1A2B51EC100BCF
:10591000FAF733FD53EC182BFAF729FD53EC192B4A
:10592000FAF7A8FECDE9060149E09DED060B01243A
:1059300053EC182B51EC100BFAF778FC9DED060B8D
:1059400041EC190B53EC182B51EC100BFAF70FFD2F
:1059500053EC192BFAF78EFECDE906012FE06848CB
:10596000A0421FDD02249FED689B9DED060B53ECCA
:10597000192B51EC100BFAF700FD53EC182BFAF72A
:1059800055FC9DED060B41EC180B53EC192B51EC1B
:10599000100BFAF7ECFC53EC182BFAF76BFECDE981
:1059A00006010CE09DED060B032453EC102B9FED3C
:1059B000580B51EC100BFAF75DFECDE906019DED99
:1059C000060B53EC102B51EC100BFAF7D6FC41EC04
:1059D000180B53EC182BFAF7D0FC41EC190B4E487E
:1059E0000621B0EE490AF0EE690A784400F069FC3D
:1059F00053EC182B51EC100BFAF7BFFC41EC180BD1
:105A00004648B0EE490AF0EE690A0521784400F0F4
:105A100058FC53EC192B51EC100BFAF7AEFC41EC8F
:105A2000100B51EC180B53EC102B002C0EDAFAF77C
:105A3000FDFB9DED061B53EC112BFAF79EFC9DED33
:105A4000061B53EC112BFAF795FC35E0FAF7EEFB49
:105A50009DED061B53EC112BFAF78FFC41EC100B5C
:105A60002F48784400EBC40090ED001B51EC100B64
:105A700053EC112BFAF77BFC9DED061B53EC112B1D
:105A8000FAF775FC41EC100B2648784400EBC40093
:105A900090ED001B51EC100B53EC112BFAF76AFC44
:105AA00041EC100B002DA2BFBDEC068B02B070BD07
:105AB00051EC100B81F0004141EC100B01E70000AC
:105AC000000010440000F07F182D4454FB21F93FE2
:105AD000182D4454FB21F9BF0000DC3F0000203E9C
